:020000041000EA
:1000000000B5324B212058609868022188439860DF
:10001000D860186158612E4B002199600221596106
:100020000121F02299502B49196001219960352056
:1000300000F044F80222904214D00621196600F024
:1000400034F8196E01211966002018661A6600F04E
:100050002CF8196E196E196E052000F02FF8012189
:100060000842F9D1002199601B49196000215960AB
:100070001A491B48016001219960EB211966A021F2
:10008000196600F012F800219960164914480160C1
:100090000121996001BC002800D000471248134993
:1000A000086003C880F30888084703B5996A0420EC
:1000B0000142FBD001200142F8D103BD02B5186610
:1000C0001866FFF7F2FF186E186E02BD00000240BE
:1000D000000000180000070000035F00212200005C
:1000E000F4000018222000A00001001008ED00E03C
:1000F00000000000000000000000000074B24E7A12
:1001000000200420F7010010C3010010C5010010F9
:10011000C1010010C1010010C1010010C101001097
:10012000C1010010C1010010C1010010C701001081
:10013000C1010010C1010010C9010010CB01001065
:10014000CD010010CD010010CD010010CD01001037
:10015000CD010010CD010010CD010010CD01001027
:10016000CD010010CD010010CD010010CD01001017
:10017000CD010010CD010010CD010010CD01001007
:10018000CD010010CD010010CD010010CD010010F7
:10019000CD010010CD010010CD010010CD010010E7
:1001A000CD010010CD010010CD010010CD010010D7
:1001B000CD010010CD010010CD010010CD010010C7
:1001C00000BE00BE00BE00BE00BE00BE00F04BF888
:1001D000103800BEF2EB8871A4B40010C8B400104F
:1001E0003402001090A31AE700202149086006C8D5
:1001F00081F3088810471F48006800282FD10DA4FC
:100200000ECC002902D000F012F8F9E71A491B4A77
:10021000002000E001C19142FCD1194988471949E9
:1002200088471949884700BEFDE701C901C29A42C3
:10023000FBD37047C8B40010C00000204C1F002042
:1002400054D30010000004200000042054D30010F8
:1002500000100420001004200000000070470B482C
:1002600007F088FA0047EFF30580C0B2704700003E
:1002700008ED00E0000000D0501F0020B02C00204E
:10028000F97000100106001021720010575600008E
:1002900006005250ABB3605314AE0010060052502B
:1002A000861C030224AE0010060052505422A29D68
:1002B00034AE001005005250DE65F46854D30010CF
:1002C000F8B5C0460448054B10B5834203D0044B33
:1002D000002B00D0984710BD4C1F00204C1F002061
:1002E0000000000006480749091A8B10C90FC918F9
:1002F00010B5491003D0044B002B00D0984710BD17
:100300004C1F00204C1F00200000000010B5074CBF
:100310002378002B09D1FFF7D5FF054B002B02D026
:10032000044800E000BF0123237010BD50220020CC
:100330000000000048AA0010054B10B5002B03D0A8
:100340000449054800E000BFFFF7CCFF10BDC046E0
:10035000000000005422002048AA0010012A00D109
:10036000016000207047C046012A00D101600020D2
:100370007047C046012A00D1016000207047C04686
:1003800000B58BB005A805F041FA6A4608AB03CB6F
:1003900003C203A80599069A079B03F00FFD039873
:1003A000049903F053F90BB000BDC04600B58BB003
:1003B00005A805F02BFA099B05980393009306996D
:1003C000079A089B04F05CFE0BB000BD00B58BB033
:1003D00005A805F01BFA099B05980393009306995D
:1003E000079A089B04F008FF0BB000BD00B58BB066
:1003F00005A805F00BFA6A4608AB03CB03C203A8B5
:100400000599069A079B03F0D9FC0398049903F019
:100410000DFB0BB000BDC04600B58BB005A805F0C4
:10042000F5F96A4608AB03CB03C203A80599069AFF
:10043000079B04F075FB0398049903F007F90BB0D0
:1004400000BDC04600B58BB005A805F0DFF96A46CF
:1004500008AB03CB03C203A80599069A079B04F0D7
:1004600047F80398049903F0F1F80BB000BDC046BB
:1004700000B58BB005A805F0C9F96A4608AB03CBF7
:1004800003C203A80599069A079B04F031F8039864
:10049000049903F0CBFA0BB000BDC04600B58BB099
:1004A00005A805F0B3F96A4608AB03CB03C203A85D
:1004B0000599069A079B04F01BF803A803F08AF934
:1004C0000BB000BD00B58BB005A805F09FF96A46DA
:1004D00008AB03CB03C203A80599069A079B04F057
:1004E0001FFB03A803F076F90BB000BD00B58BB07D
:1004F00005A805F08BF96A4608AB03CB03C203A835
:100500000599069A079B03F059FC03A803F062F9CA
:100510000BB000BD00B58BB005A805F077F9099BBD
:100520000598039300930699079A089B05F036F8FF
:100530000BB000BD00B58BB005A805F067F96A46A1
:1005400008AB03CB03C203A80599069A079B03F0E7
:1005500035FC03A803F016FB0BB000BD10B588B046
:10056000040003A805F052F96A4606AB03CB03C2A8
:1005700020000399049A059B03F020FC200008B09A
:1005800010BDC04610B588B0040003A805F03EF9C0
:100590006A4606AB03CB03C220000399049A059B6D
:1005A00004F0BEFA200008B010BDC04610B588B0F7
:1005B000040003A805F02AF96A4606AB03CB03C280
:1005C00020000399049A059B03F092FF200008B0D5
:1005D00010BDC04600B58BB005A805F017F96A46F6
:1005E00008AB03CB03C203A80599069A079B04F046
:1005F00097FA0398049903F029F80BB000BDC046A0
:10060000F0B5D6464F464646C0B586B002AC23008C
:100610006946994801AA05F0E5FB002803D19649EF
:10062000964806F0FFFD0199029A009805F09EFB9E
:1006300008F090F8192005F0C1FCD02580232D0684
:100640009B0418206B62AB6105F0B8FC802322008C
:100650005B04AB628A4B43CB43C21B780D20137003
:1006600007F006FF0D222100804607F0FBFE0D2358
:1006700043449A4601234646994637780136380066
:1006800005F09CFC4B46BB40002201213800AB62C8
:1006900005F07CFC5645F0D14E464A466B681B0C73
:1006A0001E40134200D1DFE06B685B0C134200D1A7
:1006B0009AE01C2005F082FCD02380221B06520504
:1006C00001211C209A62002205F060FC6D496E48F1
:1006D0008A6A8B6A9B1A8342FBD9D0270126694814
:1006E0006A493F0603E07B681B0F1E4208D0836AFD
:1006F0009B1A8B42F7D9D0231B065B68DB012DD4F4
:10070000D0231B065A680121120603D55B689B089B
:100710000B420ED15E4B2100E3605E4B1C20A360B8
:1007200000F0DEF8A368002B03D003222100200094
:100730009847D0231B065B685B0600D483E0564BCA
:100740002100E360554B1C20A36000F0C9F8A368AA
:10075000002B03D00322210020009847D0231B0642
:100760005B689B046BD5D0231B065B685B0462D57A
:10077000D0231B065B689B0259D5D0231B065B6800
:100780005B0250D5D0231B065B68DB0247D5D02324
:100790001B065B685B073ED5D0231B065B681B0608
:1007A00035D5D0231B065B685B062CD5D0231B06F2
:1007B0005B689B0623D5D0231B065B68DB061AD536
:1007C000D0231B065B68DB0711D53549354802F09D
:1007D000DBFF40460D2107F053FE002006B0E0BCD1
:1007E000BA46B146A846F0BD05F07EF961E72E484D
:1007F00003F0DEF8E9E72D4803F086F9E0E72C483E
:1008000003F082F9D7E72B4802F07EFFCEE72A48B3
:1008100002F07AFFC5E7294803F076F9BCE72848DB
:1008200003F084F8B3E7274803F080F8AAE72648E6
:1008300003F07CF8A1E7254803F08AFA98E72448FA
:1008400003F086FA8FE7234B2100E360224B1C2044
:10085000A36000F045F8A368002B00D16FE70322E6
:100860002100200098476AE71C4806F083FF31000A
:10087000030030009847C04648E8010048AA00102D
:100880007CAA0010004005409F8601001FA10700C0
:10089000AD0500105D0300105D050010750300102C
:1008A000D505001081030010AD030010CD0300102A
:1008B000ED0300101904001045040010710400102D
:1008C0009D040010C5040010ED0400101505001073
:1008D0003505001085050010690300105542000021
:1008E000F0B5DE464E4645465746E0B591B00400A9
:1008F0000E0005F063FB0123D0259846A3402D068A
:100900000022AB620121200005F040FB0B2005F026
:1009100055FB80231B016B626420BD4D002106F056
:1009200003F82000062105F019FBBA49280007F05A
:100930007BFF03001033C2011B031343B64A079326
:10094000E3031340B54A2343134064011C4382234D
:10095000DB041C43A023DB02069389231B04020053
:1009600081460893002106AB2800099407F0C0FFD8
:1009700042462B68B046934313432B604B4601938A
:100980008021A34C4900626813000B400A42FAD14F
:10099000226AD2B2002A00D1FCE0412A00D11DE136
:1009A000402A00D0DCE08021994A490053680B427C
:1009B000FCD1136A8022964952004B681C001440F7
:1009C0001342FAD10B6ADB0700D4DDE0D02380228A
:1009D0001B0612015A6143469B68002B00D1D4E1EB
:1009E000414603A8CB689847002300220A920B9344
:1009F0000C920D930023002001250E9303AE00946A
:100A000009E0382143109A00521802A98C4662442A
:100A1000183A126800922C0004402201971C91465B
:100A2000944638229B009B1802AA924618222C005A
:100A300031785242934626324A440C409440012277
:100A40004A44534492469B442A0053469A40CB0959
:100A500092461A004B469A4003239946CC4463467B
:100A6000544492462A009A408B0994461A002A4020
:100A7000BA405444644494462A00FB1C9A404B09F3
:100A8000644494461A00BB1C2A409A40644494462D
:100A90002A007B1D9A400B09644494461A003B1DB2
:100AA0002A409A40644494462A00FB1D9A40CB0891
:100AB000644494461A00BB1D2A409A4064440923AA
:100AC000944664449C46BC4463462A009A408B0882
:100AD00094461A0008239946B9444B462A409A4046
:100AE00064440B23944664449C46BC4463462A00F9
:100AF0009A400A23944664449C46BC446346490891
:100B00002940994064182900009B0D37B9409C4644
:100B10005B466418644401301C600136082800D02C
:100B20006FE70E9B3A4C03330E9323680021AB43CF
:100B30002360019B20009A1D06AB07F0D9FE80229E
:100B400023680AA9AB431D43256052020FAD086814
:100B500063681342FCD1043120618D42F7D10FE765
:100B60000125C82023680021AB432360400005F025
:100B7000DBFE06AB0021019A254807F0B9FE236889
:100B8000AB432B432360FBE6D02380221B061201DC
:100B90009A6120E701250620002105F0C5FE2368A3
:100BA0000021AB432360019B19489A1D06AB07F057
:100BB0009FFE80212368164AAB432B4323604902E2
:100BC00053680B42FCD18021154B49021361104A36
:100BD00053680B42FCD1134B1361D1E6D022802124
:100BE0001206890403AE516131000F48002514C874
:100BF00014C1008800220880002101240A910B9270
:100C00000C910D920E910F920093002218E0C046B5
:100C10000000205098AA0010E0FF0FFC1FFCFFE32B
:100C2000AAEBAAAAAAFA03008CAA001038216A101B
:100C300093005B1802A98C466344183B1B68009321
:100C400023002B40190138239200D21802AB9A4698
:100C500018235B42881C89468C469B460E21230044
:100C6000377849443B408B400121494452448A46ED
:100C70009344210052469140FA098A4611004A469F
:100C8000914003229146CC44624653448A46210057
:100C90009140BA098C46110021408140534463447D
:100CA0008C462100C21C91407A0963448C46110095
:100CB000821C2140914063448C462100421D91409A
:100CC0003A0963448C461100021D2140914063445F
:100CD0008C462100C21D9140FA0863448C461100E5
:100CE000821D21409140634409228C46634494460E
:100CF0008444624621009140BA088C4611000822C3
:100D0000914681444A462140914063440B228C46DF
:100D10006344944684446246210091400A228C46F2
:100D2000634494468444624621007F0827409740EC
:100D30000D30009A814094465A46DB195B18634493
:100D40000135136001360A2D00D06FE70F9B104D5F
:100D500003330F932B680021A3432B60019B2800D2
:100D60009A1D06AB07F0C4FD80222B680AA9A34395
:100D70001C432C60520210AC08686B681342FCD113
:100D8000043128618C42F7D1FAE507F057FEC046DE
:100D9000000020500122014B1A707047CF12002032
:100DA0007047C046F0B5C6468D4B16009A690400E0
:100DB0000F0000B5002A03D09278802A00D1FFE00E
:100DC0001A6B002A03D09278802A00D1FAE09A6C3C
:100DD000002A03D09278802A00D1F5E01A6E002A0A
:100DE00003D09278802A00D1F0E09A6F002A03D0D5
:100DF0009278802A00D1EBE090229A58002A03D002
:100E00009278802A00D1E5E0A8229A58002A03D0DF
:100E10009278802A00D1DFE0C0229A58002A03D0BD
:100E20009278802A00D1D9E0D8229A58002A03D09B
:100E30009278802A00D1ADE0F0229A58002A03D09F
:100E40009278802A00D1A7E0842252009A58002A82
:100E500003D09278802A00D1A0E0902252009A58C4
:100E6000002A03D09278802A00D19AE09C22520076
:100E70009A58002A03D09278802A00D194E0A822C0
:100E800052009A58002A03D09278802A00D18EE02E
:100E9000B42252009A58002A03D09278802A00D1B6
:100EA00088E0C02252009A58002A03D09278802A03
:100EB00000D182E000239C421ED080202368C00025
:100EC0009B7830437F2B48D800239846454D237D9F
:100ED000002B02D08022920110432A68002A07DDED
:100EE000012253402375E368186080BCB846F0BD0A
:100EF0004246002AF7D1F3E7402E27D8802000236E
:100F0000384DC0002B6030430022236890469B7808
:100F10007F2B31D82B68002BD9DD2B68002B08DD07
:100F20000023314A4037FE5CD6542E6801339E427E
:100F3000F9DC2B68002BCADD00232B4A2B4ED15C39
:100F4000F154296801339942F9DCC0E78820254D26
:100F5000403E2E60C0004026D6E7E36832001B68A2
:100F600039001B04DB0F2069984607F07BFA8420C8
:100F700000021C4D3043AAE7E36832001B683900C9
:100F80001B04DB0F2069984607F06CFA84200002EE
:100F90003043BFE7D8338EE7F0338CE70933FF33B4
:100FA00089E72133FF3386E73933FF3383E7513352
:100FB000FF3380E76933FF337DE78133FF337AE71F
:100FC000183378E7303376E7483374E7603372E7F5
:100FD000783370E790336EE7A8336CE7C0336AE785
:100FE00068240020182600201C2700201C26002032
:100FF000B44A10B51368002B00DC89E01368B24BCB
:101000009969002903D08978802900D111E1196BF1
:10101000002903D08978802900D10DE1996C00293D
:1010200003D08978802900D109E1196E002903D005
:101030008978802900D105E1996F002903D089784A
:10104000802900D101E190215958002903D08978E5
:10105000802900D1FCE0A8215958002903D08978C3
:10106000802900D1F7E0C0215958002903D08978A0
:10107000802900D1F2E0D8215958002903D089787D
:10108000802900D1EDE0F0215958002903D089785A
:10109000802900D1E8E0842149005958002903D073
:1010A0008978802900D1E2E090214900595800292F
:1010B00003D08978802900D1DDE09C21490059586E
:1010C000002903D08978802900D1D8E0A8214900DF
:1010D0005958002903D08978802900D1D3E0B42160
:1010E00049005958002903D08978802900D1CEE0E1
:1010F000C02149005858002804D081780020802958
:1011000000D1C8E01268714992B2FFF74BFE10BDE2
:101110006F4B1A78002A06D06E4A11786E4A116019
:1011200000221A70F3E7684B9A69002A03D092787C
:10113000002A00D1B3E01A6B002A03D09278002A6B
:1011400000D1B2E09A6C002A03D09278002A00D134
:10115000A8E01A6E002A03D09278002A00D1AAE0F3
:101160009A6F002A03D09278002A00D1A0E0902242
:101170009A58002A03D09278002A00D1B1E0A82220
:101180009A58002A03D09278002A00D1A6E0C02203
:101190009A58002A03D09278002A00D18EE0D822F3
:1011A0009A58002A03D09278002A00D19CE0F022BD
:1011B0009A58002A03D09278002A00D19BE084221A
:1011C00052009A58002A03D09278002A00D18EE06B
:1011D000902252009A58002A03D09278002A00D117
:1011E00094E09C2252009A58002A03D09278002A58
:1011F00000D187E0A82252009A58002A02D09278A3
:10120000002A7BD0B42252009A58002A03D0927848
:10121000002A00D182E0C02252009858002803D052
:1012200082780020002A75D000220021FFF7BAFD45
:101230006DE71833180065E73033180062E748336C
:1012400018005FE7603318005CE77833180059E74F
:101250009033180056E7A833180053E7C03318003E
:1012600050E7D83318004DE7F03318004AE7093348
:10127000FF33180046E72133FF33180042E73933C4
:10128000FF3318003EE75133FF3318003AE7693364
:10129000FF33180036E78133FF33180032E7183385
:1012A0001800C1E748331800BEE730331800BBE729
:1012B00078331800B8E760331800B5E7C03318007A
:1012C000B2E7C04618260020682400201C26002013
:1012D000AA2C0020A82C002000001150A8331800D0
:1012E000A2E7903318009FE7D83318009CE7093332
:1012F000FF33180098E7F033180095E75133FF33B8
:10130000180091E73933FF3318008DE72133FF339D
:10131000180089E78133FF33180085E76933FF330D
:10132000180081E710B5052900D181E0634B1A78D8
:10133000634B9969002903D08978914200D1A4E0D8
:10134000196B002903D08978914200D1A0E0996CF3
:10135000002903D08978914200D19CE0196E0029C0
:1013600003D08978914200D198E0996F002903D089
:101370008978914200D194E090215958002903D0F6
:101380008978914200D18FE0A8215958002903D0D3
:101390008978914200D18AE0C0215958002903D0B0
:1013A0008978914200D185E0D8215958002902D08E
:1013B000897891424BD0F0215958002902D0897880
:1013C000914247D0842149005958002902D0897898
:1013D000914242D0902149005958002902D0897881
:1013E00091423ED09C2149005958002902D0897869
:1013F00091423AD0A82149005958002902D0897851
:10140000914236D0B42149005958002902D0897838
:10141000914232D0C02149005858002803D0817829
:10142000002091422DD005220021FFF7BBFC10BD0A
:101430004378002B05D0D02380221B0612015A616D
:1014400074E7D02380221B0612019A616EE7D8331D
:101450001800E8E7F0331800E5E70933FF33180018
:10146000E1E72133FF331800DDE73933FF3318009C
:10147000D9E75133FF331800D5E76933FF3318003C
:10148000D1E78133FF331800CDE718331800CAE7DE
:1014900030331800C7E748331800C4E7603318003A
:1014A000C1E778331800BEE790331800BBE7A833D4
:1014B0001800B8E7C0331800B5E7C046D0120020C6
:1014C00068240020F0B5C64604007E4D7E4FAE680D
:1014D00009223100380000B506F0C4FFA379E27993
:1014E000B17812021A43F3783E001B020B4309360F
:1014F0009A4200D381E0AB69F21B92B2002B03D079
:101500009B78802B00D1C5E02B6B002B03D09B7800
:10151000802B00D1C1E0AB6C002B03D09B78802BDB
:1015200000D1BDE02B6E002B03D09B78802B00D127
:10153000B9E0AB6F002B03D09B78802B00D1B5E0D6
:101540009023EB58002B03D09B78802B00D1B0E088
:10155000A823EB58002B03D09B78802B00D1ABE065
:10156000C023EB58002B03D09B78802B00D1A6E042
:10157000D823EB58002B02D09B78802B6CD0F02323
:10158000EB58002B02D09B78802B68D084235B0023
:10159000EB58002B02D09B78802B63D090235B000C
:1015A000EB58002B02D09B78802B5FD09C235B00F4
:1015B000EB58002B02D09B78802B5BD0A8235B00DC
:1015C000EB58002B02D09B78802B57D0B4235B00C4
:1015D000EB58002B02D09B78802B53D0C0235B00AC
:1015E000E858002803D083780020802B4ED03900A3
:1015F000FFF7D8FB80BCB846F0BD30003E000922A2
:10160000696806F02FFF314B12361B78002B1BD177
:101610002F4B1B78002B10D1A8235B0098462C0081
:10162000A844A16C002904D03000072206F01AFF5C
:10163000073618344445F4D15DE7300011222549BE
:1016400006F010FF1136E7E730003E000922E96896
:1016500006F008FF1B36DBE72800D830C7E7280074
:10166000F030C4E728000930FF30C0E728002130FF
:10167000FF30BCE728003930FF30B8E72800513090
:10168000FF30B4E728006930FF30B0E72800813030
:10169000FF30ACE728001830A9E728003030A6E773
:1016A00028004830A3E728006030A0E72800783001
:1016B0009DE7280090309AE72800A83097E7280097
:1016C000C03094E7682400201C280020AC2C0020A7
:1016D000AE2C0020C4AA0010F8B58378C278002B85
:1016E00000D1A0E07F4A1278002A02D0EE2B00D170
:1016F000A2E07D4A7D4C9446626963449B009D58FC
:101700000027280008F08EFF032301304200280044
:10171000774ED2B232707370B31C057801301D70F1
:101720005F700233002DF8D192B2A369002B03D071
:101730009B78802B00D1BDE0236B002B03D09B78DE
:10174000802B00D1B9E0A36C002B03D09B78802BB9
:1017500000D1B5E0236E002B03D09B78802B00D105
:10176000B1E0A36F002B03D09B78802B00D1ADE0BC
:101770009023E358002B03D09B78802B00D1A8E066
:10178000A823E358002B03D09B78802B00D1A3E043
:10179000C023E358002B03D09B78802B00D19EE020
:1017A000D823E358002B02D09B78802B64D0F02301
:1017B000E358002B02D09B78802B60D084235B0001
:1017C000E358002B02D09B78802B5BD090235B00EA
:1017D000E358002B02D09B78802B57D09C235B00D2
:1017E000E358002B02D09B78802B53D0A8235B00BA
:1017F000E358002B02D09B78802B4FD0B4235B00A2
:10180000E358002B02D09B78802B4BD0C0235B0089
:10181000E358002B02D09B78802B47D0002031006A
:10182000FFF7C0FAF8BD324E304C04223000216977
:1018300006F018FE042278E72D4EDC3B33700F3B98
:1018400073704A33B37053220023F37032710D3A30
:101850007371B2710E32F3713272233A7372B272D3
:10186000013AF37232737373B2737F32F3731F4CA6
:10187000327473749D3A58E72000D830CFE72000C7
:10188000F030CCE720000930FF30C8E720002130DD
:10189000FF30C4E720003930FF30C0E7200051306E
:1018A000FF30BCE720006930FF30B8E7200081300E
:1018B000FF30B4E720001830B1E720003030AEE749
:1018C00020004830ABE720006030A8E720007830E7
:1018D000A5E720009030A2E72000A8309FE7200075
:1018E000C0309CE7AD2C0020FFFFFF3F68240020A4
:1018F0001C280020B44B01001B7810B5002B00D130
:1019000091E0B24B9A69002A03D09278802A00D1E4
:1019100030E11A6B002A03D09278802A00D12FE19F
:101920009A6C002A03D09278802A00D131E11A6E95
:10193000002A03D09278802A00D130E19A6F002AE1
:1019400003D09278802A00D12CE190229A58002A64
:1019500003D09278802A00D12AE1A8229A58002A3E
:1019600003D09278802A00D12BE1C0229A58002A15
:1019700003D09278802A00D131E1D8229A58002AE7
:1019800003D09278802A00D12CE1F0229A58002AC4
:1019900003D09278802A00D12AE1842252009A58FA
:1019A000002A03D09278802A00D12BE190225200A5
:1019B0009A58002A03D09278802A00D12AE19C22EA
:1019C00052009A58002A03D09278802A00D129E147
:1019D000A82252009A58002A03D09278802A00D177
:1019E000B0E0B42252009A58002A03D09278802A9C
:1019F00000D1B3E0C02252009858002804D0827869
:101A00000020802A00D1B1E08A79CB791B021343F0
:101A10002822272B03D88B79CA7912021A436C49E2
:101A2000FFF7C0F910BD694B9A69002A03D092787C
:101A3000802A00D1A1E01A6B002A03D09278802A74
:101A400000D1A0E09A6C002A03D09278802A00D1BD
:101A50009CE01A6E002A03D09278802A00D19BE085
:101A60009A6F002A03D09278802A00D19DE09022BC
:101A70009A58002A03D09278802A00D19BE0A822AD
:101A80009A58002A03D09278802A00D196E0C0228A
:101A90009A58002A03D09278802A00D19CE0D8225C
:101AA0009A58002A03D09278802A00D19DE0F02233
:101AB0009A58002A03D09278802A00D19BE0842291
:101AC00052009A58002A03D09278802A00D195E0DB
:101AD000902252009A58002A03D09278802A00D18E
:101AE00094E09C2252009A58002A03D09278802ACF
:101AF00000D193E0A82252009A58002A02D092788E
:101B0000802A23D0B42252009A58002A02D0927818
:101B1000802A1FD0C02252009858002803D0827813
:101B20000020802A1ED08A79CB791B0213432822F9
:101B3000272B03D88B79CA7912021A432549FFF75C
:101B400031F96FE75133FF3318005DE75133FF334D
:101B50001800E8E76933FF331800E4E76933FF331F
:101B6000180051E78133FF331800DCE78133FF337E
:101B7000180049E71833180046E718331800D2E771
:101B80003033180040E730331800CCE748331800F2
:101B9000C9E74833180037E760331800C3E76033FC
:101BA000180031E7783318002EE778331800BAE7C9
:101BB0009033180028E790331800B4E7A8331800D2
:101BC000B1E7A83318001FE7AE2C002068240020DE
:101BD00038AB001010AB0010C0331800A3E7C033BF
:101BE000180011E7D83318000EE7D83318009AE729
:101BF000F033180008E7F033180094E70933FF3397
:101C0000180090E70933FF331800FDE62133FF3356
:101C1000180088E72133FF331800F5E63933FF3326
:101C2000180080E73933FF331800EDE6F8B5AB4B09
:101C300018781E781D785C781A785A785A889A88AD
:101C4000DB88A74BC0B29A69F6B2EDB2E4B2002AC3
:101C500004D09178802901D100F08FFD196B002903
:101C600004D08978802901D100F08BFD996C00297E
:101C700004D08978802901D100F087FD196E0029F0
:101C800004D08978802901D100F083FD996F002963
:101C900004D08978802901D100F026FE902159587E
:101CA000002904D08978802901D100F021FEA821E3
:101CB0005958002904D08978802901D100F01CFEF0
:101CC000C0215958002904D08978802901D100F019
:101CD0001EFED8215958002904D08978802901D1C5
:101CE00000F01AFDF0215958002904D08978802984
:101CF00001D100F015FD842149005958002904D074
:101D00008978802901D100F00FFD902149005958B0
:101D1000002904D08978802901D100F00AFD9C2196
:101D200049005958002904D08978802901D100F050
:101D300005FDA82149005958002904D08978802937
:101D400001D100F000FDB42149005958002904D008
:101D50008978802901D100F0FBFCC0214900595845
:101D6000002901D100F005FF8F7819008131FF3182
:101D7000802F01D000F0FDFE60273E40413F3D40F6
:101D80001E3F0F7557490978002900D0AEE056492B
:101D90000978002900D069E141B2002900DA71E137
:101DA000052C01D100F000FC092C01D100F014FC3D
:101DB000002A04D09278802A01D100F0A1FD1A6B8C
:101DC000002A04D09278802A01D100F09CFD9A6C00
:101DD000002A04D09278802A01D100F09CFD1A6E6E
:101DE000002A04D09278802A01D100F098FD9A6FE1
:101DF000002A04D09278802A01D100F098FD902228
:101E00009A58002A04D09278802A01D100F08BFDE4
:101E1000A8229A58002A04D09278802A01D100F092
:101E20008AFDC0229A58002A04D09278802A01D1D3
:101E300000F085FDD8229A58002A04D09278802A92
:101E400001D100F080FDF0229A58002A04D0927847
:101E5000802A01D100F080FD842252009A58002A85
:101E600004D09278802A01D100F071FD90225200B6
:101E70009A58002A04D09278802A01D100F070FD8F
:101E80009C2252009A58002A04D09278802A01D1CC
:101E900000F06BFDA82252009A58002A04D09278D4
:101EA000802A01D100F06BFDB42252009A58002A1A
:101EB00004D09278802A01D100F05CFDC02252004B
:101EC0009858002805D082780020802A01D100F09F
:101ED0005BFD00220021FEF765FFF8BD00001050F9
:101EE00068240020AD2C0020AE2C002041B2002937
:101EF00000DABFE0B7480078002800D150E7B648C4
:101F00000778C12F00D114E2B3480778C12F00D160
:101F1000B2E2B1480778C02F00D03EE74778012FE2
:101F200000D03AE74788002F00D036E78788002F97
:101F300000D032E7C088042800D02EE7002A04D061
:101F40009278802A01D100F087FD1A6B002A04D014
:101F50009278802A01D100F092FD9A6C002A04D078
:101F60009278802A01D100F08DFD1A6E002A04D0EB
:101F70009278802A01D100F088FD9A6F002A04D05F
:101F80009278802A01D100F083FD90229A58002A8D
:101F900004D09278802A01D100F07DFDA8229A58C1
:101FA000002A04D09278802A01D100F077FDC02267
:101FB0009A58002A04D09278802A01D100F071FD4D
:101FC000D8229A58002A04D09278802A01D100F0B1
:101FD0006BFDF0229A58002A04D09278802A01D111
:101FE00000F065FD842252009A58002A04D09278AD
:101FF000802A01D100F05EFD902252009A58002AFA
:1020000004D09278802A01D100F057FD9C22520022
:102010009A58002A04D09278802A01D100F050FD0D
:10202000A82252009A58002A04D09278802A01D11E
:1020300000F049FDB42252009A58002A04D0927848
:10204000802A01D100F042FDC02252009858002899
:1020500005D083780020802B01D100F087FD5E4BF6
:102060005E49DA8892B2FEF79DFE36E741B200295A
:1020700000DB44E7402E00D1A3E256480078002858
:1020800000D03CE7002E02D1012D00D1AAE0062CA1
:1020900000D08DE650484188090A022900D180E32A
:1020A000032900D179E3012900D18BE3002A04D070
:1020B0009278802A01D100F023FC1A6B002A04D008
:1020C0009278802A01D100F01EFC9A6C002A04D07C
:1020D0009278802A01D100F01EFC1A6E002A04D0EA
:1020E0009278802A01D100F01AFC9A6F002A04D05D
:1020F0009278802A01D100F01AFC90229A58002A86
:1021000004D09278802A01D100F00DFCA8229A58C0
:10211000002A04D09278802A01D100F00CFCC02261
:102120009A58002A04D09278802A01D100F055FCF8
:10213000D8229A58002A04D09278802A01D100F03F
:102140006BFCF0229A58002A04D09278802A01D1A0
:1021500000F065FC842252009A58002A04D092783C
:10216000802A01D100F05EFC902252009A58002A89
:1021700004D09278802A01D100F057FC9C225200B2
:102180009A58002A04D09278802A01D100F050FC9D
:10219000A82252009A58002A04D09278802A01D1AD
:1021A00000F049FCB42252009A58002A04D09278D8
:1021B000802A01D100F00EFCC0225200985800285D
:1021C00000D186E683780020802B00D081E6044889
:1021D0007FE6C046AE2C0020000010500CAB001073
:1021E000E8250020062C00D0E2E59F494888882198
:1021F0008901884200D04DE7002A04D09278802AD5
:1022000001D100F01BFC1A6B002A04D09278802ABE
:1022100001D100F062FC9A6C002A04D09278802AE6
:1022200001D100F05CFC1A6E002A04D09278802A5A
:1022300001D100F056FC9A6F002A04D09278802ACF
:1022400001D100F050FC90229A58002A04D09278D4
:10225000802A01D100F049FCA8229A58002A04D013
:102260009278802A01D100F043FCC0229A58002ABB
:1022700004D09278802A01D100F03DFCD8229A58EF
:10228000002A04D09278802A01D100F037FCF02295
:102290009A58002A04D09278802A01D100F031FCAB
:1022A000842252009A58002A04D09278802A01D1C0
:1022B00000F02AFC902252009A58002A04D092780A
:1022C000802A01D100F023FC9C2252009A58002A57
:1022D00004D09278802A01D100F01CFCA822520080
:1022E0009A58002A04D09278802A01D100F036FC56
:1022F000B42252009A58002A04D09278802A01D140
:1023000000F02FFCC02252009858002805D0837896
:102310000020802B01D100F000FC544B524A196878
:10232000534BD4881D88A54200D847E3D28892B287
:10233000D1E54778012F00D0E6E54788BC468027E5
:102340007F00BC4500D0DFE58788002F00D0DBE5AB
:10235000C088142800D0D7E5002A03D09278802ABC
:1023600000D1DDE31A6B002A03D09278802A00D1D5
:10237000D8E39A6C002A03D09278802A00D1D3E364
:102380001A6E002A03D09278802A00D1CEE39A6F89
:10239000002A03D09278802A00D1C9E390229A586B
:1023A000002A03D09278802A00D1C3E3A8229A5849
:1023B000002A03D09278802A00D1BDE3C0229A5827
:1023C000002A03D09278802A00D1B7E3D8229A5805
:1023D000002A03D09278802A00D1B1E3F0229A58E3
:1023E000002A03D09278802A00D1ABE384225200E5
:1023F0009A58002A03D09278802A00D1A4E3902230
:1024000052009A58002A03D09278802A00D117E30C
:102410009C2252009A58002A03D09278802A00D138
:1024200010E3A82252009A58002A03D09278802AFA
:1024300000D109E3B42252009A58002A03D09278BE
:10244000802A00D102E3C02252009858002804D00C
:1024500083780020802B00D186E3034B0549DA887E
:1024600092B2FEF79FFC38E500001050402C00208F
:10247000862C0020F0AA00104778012F00D048E5F4
:102480004788002F00D044E58788002F00D040E522
:10249000C088082800D03CE5002A03D09278802A22
:1024A00000D116E31A6B002A03D09278802A00D15B
:1024B00011E39A6C002A03D09278802A00D1CEE2F0
:1024C0001A6E002A03D09278802A00D1C9E29A6F4E
:1024D000002A03D09278802A00D1C4E290229A5830
:1024E000002A03D09278802A00D1BEE2A8229A580E
:1024F000002A03D09278802A00D1B8E2C0229A58EC
:10250000002A03D09278802A00D1B2E2D8229A58C9
:10251000002A03D09278802A00D1ACE2F0229A58A7
:10252000002A03D09278802A00D1A6E284225200A9
:102530009A58002A03D09278802A00D106E390228C
:1025400052009A58002A03D09278802A00D1FFE2E4
:102550009C2252009A58002A03D09278802A00D1F7
:10256000F8E2A82252009A58002A03D09278802AD2
:1025700000D1F1E2B42252009A58002A03D0927896
:10258000802A00D164E2C02252009858002804D06A
:1025900083780020802B00D15CE2844B8449DA8868
:1025A00092B2FEF7FFFB98E48049488881490870A1
:1025B000012081490870002A01D0FFF7FBFBFFF7DB
:1025C000FEFB002D02D1AF2C00D1C6E07B48007885
:1025D000002800D093E45AE5002A03D09278802A9C
:1025E00000D1DDE11A6B002A03D09278802A00D155
:1025F000D3E19A6C002A03D09278802A00D1DAE1E4
:102600001A6E002A03D09278802A00D1D0E19A6F06
:10261000002A03D09278802A00D1C6E190229A58ED
:10262000002A03D09278802A00D1BBE1A8229A58D0
:10263000002A03D09278802A00D19BE0C0229A58C9
:10264000002A0CD09278802A09D1C03318000022C9
:102650000021FEF7A7FB0122594B1A703DE4D82256
:102660009A58002A05D09278802A02D1D8331800CF
:10267000EDE7F0229A58002A05D09278802A02D1FC
:10268000F0331800E3E7842252009A58002A06D05B
:102690009278802A03D10933FF331800D7E79022BC
:1026A00052009A58002A06D09278802A03D121330A
:1026B000FF331800CBE79C2252009A58002A06D01C
:1026C0009278802A03D13933FF331800BFE7A8225C
:1026D00052009A58002A06D09278802A03D15133AA
:1026E000FF331800B3E7B42252009A58002A06D0EC
:1026F0009278802A03D16933FF331800A7E7C022FC
:10270000520098580028A2D082780020802A9ED1BA
:102710008133FF3318009AE71900D831FFF72CFBFB
:102720001900F031FFF728FB19000931FF31FFF7DD
:1027300023FB19002131FF31FFF71EFB190039314E
:10274000FF31FFF719FB19005131FF31FFF714FB7F
:1027500019006931FF31FFF70FFB14488788042FF8
:1027600000D116E115480078002801D0FFF7C7FB1B
:10277000FFF71EFBA833180069E719001831FFF7AF
:10278000FBFA19003031FFF7F7FA19004831FFF76B
:10279000F3FA19006031FFF7EFFAFEF79DFFFFF73C
:1027A0009CFBFEF78FFEFFF798FBC0460000105021
:1027B00004AB0010A82C0020AA2C0020AE2C002076
:1027C000A72C0020002A03D09278802A00D107E1AC
:1027D0001A6B002A03D09278802A00D102E19A6C09
:1027E000002A03D09278802A00D1FEE01A6E002AD7
:1027F00003D09278802A00D1FAE09A6F002A03D0A1
:102800009278802A00D1F6E090229A58002A03D0CC
:102810009278802A00D1F1E0A8229A58002A03D0A9
:102820009278802A00D1ECE0C0229A58002A03D086
:102830009278802A00D1E7E0D8229A58002A03D063
:102840009278802A00D1E1E0F0229A58002A03D041
:102850009278802A00D1DBE0842252009A58002A24
:1028600003D09278802A00D1D4E0902252009A5866
:10287000002A03D09278802A00D1A3E09C22520043
:102880009A58002A03D09278802A00D19CE0A8228E
:1028900052009A58002A03D09278802A00D195E0FD
:1028A000B42252009A58002A03D09278802A00D18C
:1028B0008EE0C02252009A58002A00D159E1180037
:1028C00092788130FF30802A00D052E119680123CC
:1028D0000375A94B1222DC88122C01D9FFF7FBFAF1
:1028E000DA8892B2FFF7F7FA19007831FFF744FA65
:1028F00019009031FFF740FA1900A831FFF73CFAB0
:102900009E48FFF7E6FA30331800FFF7E2FA1900A5
:10291000C031FFF731FA48331800FFF7DAFA6033B5
:102920001800FFF7D6FA90331800FFF7D2FA783381
:102930001800FFF7CEFAA8331800FFF7CAFAC03321
:102940001800FFF7C6FAD8331800FFF7C2FA0933A8
:10295000FF331800FFF7BDFAF0331800FFF7B9FA9C
:102960002133FF331800FFF7B4FA3933FF3318006F
:10297000FFF7AFFA6933FF331800FFF7AAFA5133B4
:10298000FF331800FFF7A5FA8133FF331800FFF774
:10299000A0FAFEF7AFFFFFF7A0FA3033180056E6B3
:1029A000764854E69033180051E6783318004EE626
:1029B000603318004BE64833180048E61A8892B294
:1029C000FFF789FA6E4881E76E487FE76E487DE73A
:1029D0006E487BE76D48FFF77CFA6D48FFF779FAA0
:1029E000664873E71800303070E7180048306DE72C
:1029F000180060306AE71800783067E718009030F8
:102A000064E71800A83061E761485FE761485DE767
:102A100061485BE7614859E75E48FFF75AFA5E484C
:102A2000FFF757FA5D48FFF754FA5548FFF751FA98
:102A30005448FFF74EFA5448FFF74BFA4F486CE4FE
:102A40004F480AE54F4808E54F4806E54F4804E57A
:102A50004E48A2E55248A0E54848FFF700FB514820
:102A60009BE5514899E5514897E5514895E551480E
:102A700093E5474891E547488FE547488DE54E483F
:102A8000FFF7EDFA4748FFF7EAFA4748FFF7E7FA9A
:102A90004648FFF7E4FA4648FFF7E1FA4548FFF7F2
:102AA000DEFA3B48FFF7DBFA3A48FFF7D8FA3A4834
:102AB000FFF7D5FA3948FFF7D2FA3148FFF7CFFAD6
:102AC0003048FFF7CCFA3048FFF7C9FA2F48FFF734
:102AD000C6FA2A4861E538485FE537481DE43148C1
:102AE0001BE4314819E4314817E43148FFF715FC7D
:102AF0003048FFF712FC2648FFF70FFC2548FFF788
:102B00000CFC2548FFF709FC2448FFF706FC1C488D
:102B1000FFF703FC1B48FFF700FC2148FFF7FDFB14
:102B200016489AE4244898E41E4896E41E4894E423
:102B30001E4892E41E4890E41E488EE414488CE43B
:102B400014488AE4144888E4144886E4134824E5C9
:102B50000B4822E50B4820E50B481EE50A48FFF725
:102B6000DCFB0A48FFF7D9FB0D4876E40C48FFF779
:102B700076FA00231B75FFDE000010508024002031
:102B800088250020A0250020B8250020D025002081
:102B900028250020402500205825002070250020F1
:102BA000E8250020B0240020C8240020E0240020D4
:102BB000F82400201025002098240020F0B5464677
:102BC000D6464F46234BC0B59E6D00250124002EEE
:102BD0002AD0214B984601239A46204B994603E080
:102BE00064000135202D1FD03442F9D050462840D2
:102BF00043464242504100229C65C0016B08184385
:102C0000174BC0B21968002905D05F68002F02D0A9
:102C1000897881420DD001321833102AF2D1A643AF
:102C200001356400002EDDD1E0BCBA46B146A846AD
:102C3000F0BD53009A18D2004A44536A906A19684A
:102C4000A6438905890DB84764000135002EC9D116
:102C5000EAE7C046000011500030115068240020FF
:102C6000802400209823194A70B5D458802521006B
:102C70006D02102629402C4216D1E3061ED4802373
:102C80005B011C420DD080221943114B12031A65BF
:102C90000023104A1370104A13700C4A13600F4A35
:102CA0001370A1420ED170BD8022094B92021A65A9
:102CB000FEF7BCFF0A4E2900E306E0D5FFF77EFFD2
:102CC0003100DCE70748614004F0ACFA0000115025
:102CD00000301150A82C0020AA2C0020A72C002086
:102CE00010000100D8AA00108022224B520470B5B7
:102CF0001A60214B21491A6010008B689843FBD160
:102D00008022002152011E4805F0A6FB05201D4926
:102D100003F0E6F90121052003F0C8F909221A4B56
:102D20001A495A6703329A670B3A1A64802292054D
:102D3000DA6490229950164BA0251C00104E813465
:102D4000FF342D06996900290CD0DA69002A09D0D0
:102D5000186A002806D09A6AC978724089060A4320
:102D60002A43026018339C42ECD18022094B520264
:102D7000DA6470BD00E0004000F0004000C0004098
:102D800000001050652C00100000115010100100C0
:102D9000682400200020115084B0F0B557464E46FC
:102DA0004546DE46E0B5CE4F85B0BA4656460F9151
:102DB0000D0C89B20EAC0E901092119303920291F9
:102DC000218BB0800120C74FB0713760C64EC74F0E
:102DD000944637800327F770029FEDB2B780B07139
:102DE000B570B146664601912221C1481A0C0570A2
:102DF000C048D2B20660C04888460380BF4B615CC1
:102E00001A70BF4BBF481970238ABF4FBF4E7B80DB
:102E100080235B00BB804346BB71019B3880FB7104
:102E20001B0A3B72A07EBA4B18704B42DBB2208C5F
:102E300033717371B3714023F371159BB54CB3605B
:102E4000B54B3460F3810423FF33B0813382002A11
:102E50000DD1002900D107E1B04B9B465946B04B3C
:102E60000A720B60AF4B80224B6031210CE0AB4B00
:102E70009B465A46AA4B1360002900D0EDE0AA4BAE
:102E8000117253602931E022A84BA94C9846404664
:102E9000A84BC27103800223FF3383800023CC221E
:102EA0008371FA234180037200215200200005F053
:102EB000D3FA5B4663604346A3609F4B9F4A2361FE
:102EC000039B226363619E4B9E4AA3619E4B626398
:102ED000E3619E4B9E4A63629E4BE263A36223645E
:102EE0005346A3649C4B9D4AE3649D4B94462365E3
:102EF0009C4B266063659C4BE760A3654B4623664D
:102F00009A4B6366EB006344A366904BED009C46CE
:102F1000974B6544E5662367964B139A1A60019AAE
:102F2000954B1A80FFF7E0FE944A1378002BFCD0F3
:102F30006F4BA2691B78002A03D092789A4200D185
:102F4000A0E0226B002A03D092789A4200D19CE044
:102F5000A26C002A03D092789A4200D198E0226EA7
:102F6000002A03D092789A4200D194E0A26F002AFE
:102F700003D092789A4200D190E09022A258002A81
:102F800003D092789A4200D18BE0A822A258002A5E
:102F900003D092789A4200D186E0C022A258002A3B
:102FA00003D092789A4200D181E0D822A258002A18
:102FB00003D092789A4200D17CE0F022A258002AF5
:102FC00003D092789A4200D177E084225200A2582E
:102FD000002A02D092789A4272D090225200A258CF
:102FE000002A02D092789A426ED09C225200A258B7
:102FF000002A02D092789A426AD0A8225200A2589F
:10300000002A02D092789A4266D0B4225200A25886
:10301000002A03D092789A4200D1B5E0C022520033
:10302000A258002A02D092789A4227D00020029A11
:103030000021FDF7B7FE0B2002F0C0FFD023802255
:103040001B0612015A6205B0F0BCBB46B246A94647
:10305000A046F0BC08BC04B01847494B3A21536065
:103060000023137280220FE72C4B9B465A462C4BB1
:1030700011721360434B2021536004E7200081301C
:10308000FF30D4E720001830D1E720003030CEE701
:1030900020004830CBE720006030C8E720007830BF
:1030A000C5E720009030C2E72000A830BFE720002D
:1030B000C030BCE72000D830B9E72000F030B6E7D8
:1030C00020000930FF30B2E720002130FF30AEE7AA
:1030D00020003930FF30AAE720005130FF30A6E74A
:1030E0001C2C002007058103242C0020070500006C
:1030F000D012002064240020842C0020AC2C00205E
:10310000AE2C002009210000342C002000260020D5
:10311000AD2C00201201000201020000442C00200E
:103120000904000002FF5D0102030000F0230020FB
:103130006824002009020000ECAA0010C012002040
:10314000C8120020F10F0010A10D001084001050D3
:103150008000105000011050950D00100400105018
:1031600008001050880010508001105025130010E6
:10317000C0011050402C0020862C0020A72C0020DD
:1031800002035D0102FF000020006930FF304EE7BE
:1031900084B0F0B5DE4657464E46C0B588B01292B0
:1031A00016006A4684460F009A4613931B9B1090A4
:1031B00011910693994614AB23CB23C223CB23C290
:1031C0005346390032006046FFF7E6FD1A9B6B4F0D
:1031D0009A4690239B466A4D6A4E3B78002B00D05E
:1031E0008BE04A46B36A9B1A1B1B962BF5DDFA232C
:1031F0009B009C466444B36A1B1BFCD4D047AB695C
:10320000002B03D09B78812B00D180E02B6B002B0F
:1032100002D09B78812B7DD0AB6C002B02D09B78A9
:10322000812B7AD02B6E002B02D09B78812B77D00C
:10323000AB6F002B02D09B78812B74D05B46EB5890
:10324000002B02D09B78812B70D0A823EB58002B49
:1032500002D09B78812B6CD0C023EB58002B02D07E
:103260009B78812B68D0D823EB58002B02D09B7819
:10327000812B64D0F023EB58002B02D09B78812B5C
:1032800060D084235B00EB58002B02D09B78812B0D
:103290005BD090235B00EB58002B02D09B78812BF6
:1032A00057D09C235B00EB58002B02D09B78812BDE
:1032B00053D0A8235B00EB58002B02D09B78812BC6
:1032C0004FD0B4235B00EB58002B02D09B78812BAE
:1032D0004BD0C0235B00E858002803D0837800203F
:1032E000812B46D042226B469B181A881999FDF70C
:1032F00059FD3B78002B00D173E700233B70FA2384
:103300009B009C464B46B46A6444E41A73E7280069
:103310001830E7E728003030E4E728004830E1E7DC
:1033200028006030DEE728007830DBE728009030A6
:10333000D8E72800A830D5E72800C030D2E7280019
:10334000D830CFE72800F030CCE728000930FF3034
:10335000C8E728002130FF30C4E728003930FF30AB
:10336000C0E728005130FF30BCE728006930FF304B
:10337000B8E728008130FF30B4E7C046CF12002004
:10338000682400200040054084B0F0B5DE46574672
:103390004E464546E0B58BB0169216006A4680460A
:1033A0008C461D001793209B14901591069318AB23
:1033B00013CB13C213CB13C232002B00404661461D
:1033C000FFF7EAFC00239B46994698460993934BE6
:1033D0003A009A46924D934E089C53461B78002B18
:1033E00000D0B7E04346462BF7D1B36A20995B1A69
:1033F0001B1B962BF1DDFA239B009C466444B36AA9
:103400001B1BFCD4884B41469F68BA429B415B42E0
:103410001B06452910DCD21BD31801229446E04438
:103420004246142A00DDA6E0099A94469C4462466E
:10343000CC469C44E14609925B46012B00D194E0C6
:10344000022B00D1ADE0AB69002B03D09B78812B20
:1034500000D1ACE02B6B002B03D09B78812B00D1EB
:10346000A8E0AB6C002B03D09B78812B00D1A4E0AB
:103470002B6E002B03D09B78812B00D1A0E0AB6F8B
:10348000002B03D09B78812B00D19CE09023EB583C
:10349000002B03D09B78812B00D197E0A823EB5819
:1034A000002B03D09B78812B00D192E0C023EB58F6
:1034B000002B03D09B78812B00D18DE0D823EB58D3
:1034C000002B03D09B78812B00D188E0F023EB58B0
:1034D000002B03D09B78812B00D183E084235B00F9
:1034E000EB58002B02D09B78812B7ED090235B0081
:1034F000EB58002B02D09B78812B7AD09C235B0069
:10350000EB58002B02D09B78812B76D0A8235B0050
:10351000EB58002B02D09B78812B72D0B4235B0038
:10352000EB58002B02D09B78812B6ED0C0235B0020
:10353000E858002803D083780020812B69D014AB91
:103540005A881D99FDF72EFC53461B783A00002B34
:1035500000D147E7002351460B70FA239B009C469D
:10356000B46A209B6444E41A49E71E9B0893984779
:1035700001239B4667E7CC4642469C446346E146AE
:10358000462A00D058E7099A981A04F009FC00224C
:10359000264B04F09EFB0022254B04F0FBFB002889
:1035A000E3D01F9B0893984702239B464BE72800D4
:1035B0001830C4E728003030C1E728004830BEE7A3
:1035C00028006030BBE728007830B8E7280090304A
:1035D000B5E72800A830B2E72800C030AFE72800E0
:1035E000D830ACE72800F030A9E728000930FF30D8
:1035F000A5E728002130FF30A1E728003930FF304F
:103600009DE728005130FF3099E728006930FF30EE
:1036100095E728008130FF3091E7C046CF120020A7
:10362000682400200040054010E000E00000494010
:10363000D01223410022034B9A70034B80329A70C0
:103640007047C046C8120020C0120020F0B557468F
:103650004E464546DE46E0B5040C85B0A2460C0A4F
:10366000009410240D0C0195264D020A6C7054062E
:10367000E60F9406B446E60FD406B046E60FB14610
:10368000031C9F07DE07FF0FF60F7F0037435E071F
:10369000F60FB60037431E07F60FF6003E43D70776
:1036A000FF0E3E439707FF0F7F013E435707FF0F73
:1036B000BF01374316074A46DC0653004246E40F73
:1036C0001C43930062461C43D3000F221C43EB783B
:1036D0001440934352461C43F60F019BF601EC70D5
:1036E000009C3743000EA971090EAF702A716871F2
:1036F000EC712B72697205B0F0BCBB46B246A946AC
:10370000A046F0BDB8130020F0B595B0050020220A
:1037100000210AA804F0A0FE0523882109ACA3809B
:10372000033BA3710133A381023BA373A376114B27
:1037300049001093812321820F495B000E91D6210D
:1037400023840E4B21831293782369460C4A0D483B
:103750000B920990079313950DABE0CBE0C1E0CB42
:10376000E0C11B680B600A990C9BFFF711FD15B0B7
:10377000F0BDC0467E053703E0120020B8130020DC
:10378000D412002025002500F0B597B00CAC220023
:103790000F4BE0CBE0C2E0CBE0C2E0CBE0C21B6865
:1037A000136078220A900B9108920AAB06AA03CB09
:1037B00003C26A4610AB23CB23C223CB23C20C988F
:1037C0000D990E9A0F9BFFF7DFFD17B0F0BDC046B5
:1037D00080AB0010F0B501214F464646D646504B0F
:1037E000C0B5197004785A780C408A4322430224E9
:1037F0000426057807786D080D406D00A243BF08C8
:103800000F402A43BF00B2433A430827B946BA43A0
:10381000477892460F40B8469F7805788F43BC465C
:103820004746624617439F704278ED0852081700DA
:103830000F407A0094469A780D401700A7436246DD
:103840003C0014439C709A78447817004A46E40878
:103850000C409743E4003C439C7044789F78A40854
:103860000C40B743A4003C4340279C7044789E78AA
:10387000A4090C40BE43A40134439C7044789E7854
:1038800064090C40203FBE43640134431026524675
:103890009C7044789F7824090C40B74324013C4332
:1038A0009C700478ED0024092A432140B2430901A9
:1038B0000A431C495A708C46827812026244DA70BC
:1038C00091B28022090A1971C178511A09027F3117
:1038D0008CB2240A9C7159710179090261448CB23D
:1038E000240AD9711C724179521A12027F3291B2A4
:1038F000090A99720C495A728C4682791202624402
:1039000091B2090A1973DA72C2791202624491B251
:10391000090A5A739973E0BCBA46B146A846F0BD8D
:10392000241400207F80FFFF8080FFFFF0B595B05A
:103930000500202200210AA804F08EFD402309ACD6
:10394000A3803E3BA3710133A381023BA3731033D9
:10395000FF3323820F4B69460E93382323830E4B8C
:103960000E4A109380235B0023840D4B0D48129365
:10397000782309900B92079313950DABE0CBE0C130
:10398000E0CBE0C11B680B600A990C9BFFF700FCC1
:1039900015B0F0BDEC1300201D121211E013002031
:1039A0002414002040000F005D38C0B27047C046AC
:1039B000F0B595B00500202200210AA804F04CFDC6
:1039C000402309ACA3803F3BA371A3731223FF33B1
:1039D0002382114B03210E93182323830F4BA181C4
:1039E000109380235B0023840D4B69461293782348
:1039F0000C4A0D480B920990079313950DABE0CB41
:103A0000E0C1E0CBE0C11B680B600A990C9BFFF79B
:103A1000BFFB15B0F0BDC046401400201D121111AF
:103A2000C0220020341400204000080070B582B08D
:103A300001913149314B0A000090051C040A41CB29
:103A400041C202202B072840EA07DB0F0343520F35
:103A500013436A07E006D20FD200C00F13434001A0
:103A60000343402020400343A006C00FED06C001E1
:103A7000ED0F03436D0222482B430340214D08887C
:103A8000E2B2284003430B200B800440082C2BD0CB
:103A90000A2313400A2B2BD006231340022B12D0EB
:103AA000062B23D005231340042B0CD0052B0AD062
:103AB00009231A40012A1DD0093A53425A41534260
:103AC000072293430F338B706B469B78CB706B460A
:103AD000DB785B420B716B461B794B716B465B79F4
:103AE0005B428B7102B070BD0023ECE70323EAE771
:103AF0000123E8E70623E6E7B41400204CAC0010ED
:103B0000EF02000010FDFFFFF0B595B00500202288
:103B100000210AA804F0A0FC402309ACA3803F3B8D
:103B2000A371A373FF332382104B03210E93502301
:103B300023830F4BA18110930E4B694623840E4BB8
:103B40000E4A129378230E480B920990079313950F
:103B50000DABE0CBE0C1E0CBE0C11B680B600A9984
:103B60000C9BFFF715FB15B0F0BDC0466414002098
:103B70006F0E850177100000B41400205814002047
:103B800040000800002370B56B4C0121A27823701F
:103B90001F331340102205000826A3700378A07875
:103BA0001B090B4090431B010343A3706B78A07863
:103BB0005B080B40B043DB000343A3706B78043E0B
:103BC0000B409800A378B3430343A3706B78A078AD
:103BD0009B080B40023EB0435B000343A370638825
:103BE00056480C36034068780007C00F03436380D3
:103BF0006B78E078DB069B0FB04333400343E37000
:103C00002B780B401801E378934303432020E370A3
:103C10002B78E2785B080B4082435B011343E3702F
:103C20002B78E2789B080B403F318A439B0113437A
:103C30007F22E3702B78E0781B0702400800DB0F3F
:103C4000DB011343E3706B781840194202D1AB7962
:103C50008B2B57D9FF202022207110006B78184041
:103C60001A4202D1EB798B2B42D9FF206071A878E0
:103C70003A285DD9C52855D8803804F095F8304ADF
:103C8000304B04F044F804F0A7F800B2E080E87884
:103C90003A284BD9C52843D8803804F085F8284AFB
:103CA000284B04F034F804F097F800B2208128790A
:103CB0003A2839D9C52831D8803804F075F8204A17
:103CC000204B04F024F804F087F800B26081687992
:103CD0003A282FD9C5281FD8803804F065F8184A2B
:103CE000184B04F014F804F077F800B2A08170BD0E
:103CF000272BBBD9283B18026421C01A03F06CFDA6
:103D0000C0B2B3E7272BA6D9283B1802C01A24312A
:103D100003F062FDC0B29EE70B48E7E70A48D5E72B
:103D20000948C3E70848B1E70848CFE70748BDE7B7
:103D30000648ABE70548D9E7BC140020FEFEFFFFAC
:103D40001DD4411DD4417D40FF7F00000080FFFF56
:103D5000F0B595B00500202200210AA804F07CFBF4
:103D6000032109ACA1811149202310918021490030
:103D7000A38021841F3BDE39A37163540C4B694639
:103D8000129378230B480C4A079309900B921395D2
:103D90000DABE0CBE0C1E0CBE0C11B680B600A9942
:103DA0000C9BFFF7F5F915B0F0BDC0465E048E021E
:103DB000BC14002020002000D014002084B0F0B5F6
:103DC000DE46574645464E46E0B50D0AA84693B036
:103DD000CCB20D0C099444461D91AC46090E170A4D
:103DE0000B91D1B20791F9B201916946E4B20F94F7
:103DF0006446150C0295097A1E920D91110E6A46C1
:103E00001F931D0A1E0C009011911DA8D9B21B0E04
:103E10000893837BE4B20A941C00037C03969B46C0
:103E2000437C1091E9B2067B0E910493117B837C55
:103E3000C57B05960291467B0393C37C0822CB4940
:103E400000989A4604F00EFBC94B1A78002A00D15C
:103E5000D0E0059AC74F002A00D094E0C6498946B1
:103E6000C6498846C6490878002800D19BE0201E34
:103E700078D1C44CA446C44C0594C44C06944C461A
:103E8000002A00D19EE02478A1464446002E00D1AD
:103E90009FE024780C94059C002800D1A0E02478B1
:103EA000A046069C002D00D1A1E024781A7063463C
:103EB0001D704B46087059424B410C995B423E7055
:103EC0001340002900D12CE14146002900D19DE09A
:103ED000002C00D11DE10020002B00D1EFE20E9D4F
:103EE000029B9D4200D02CE13023D0225746DC4675
:103EF0000F990D9E002800D034E11A008023009C09
:103F0000A270E370002D00D0A6E0039B9A4500D17B
:103F1000A9E1049B5B4500D1B8E15B46C420002BBE
:103F200000D1B6E156235246002A00D0A7E0009AFD
:103F300013715071002D00D1AAE0029B002B00D11B
:103F4000A6E06246049BBF005B001A4317430F22A2
:103F5000039B0098DB001F434378174093431F43A4
:103F6000477095E0002D84D086488446007800286C
:103F700000D0BCE184480400059001202070834CEF
:103F8000280006947BE7002E00D167E73A78002AE4
:103F900000D0AEE1784A9146012249460A7077493D
:103FA000320088465EE7774884460078002800D0D3
:103FB00011E12000744C0594744C06944C46002A80
:103FC00000D060E722700024A1464446002E00D0B5
:103FD0005FE7267000240C94059C002800D05EE763
:103FE00020700024A046069C002D00D05DE72570BF
:103FF00000245BE75F4F3A78002A00D0F4E05E4986
:10400000059A89465D4988462CE7B046002C00D0C9
:10401000BEE0002800D17EE0002B00D0BDE043468A
:10402000002B00D0B9E00E9D029B9D4200D105E11E
:104030006B426B411B01AB335746DC4680220D9E21
:104040000F99002802D15B42DBB20020009CA270D5
:10405000E370002D00D158E7029B002B00D154E7FC
:10406000049B5B4500D04EE1039B9A4500D168E775
:104070005346002B00D126E155468020802301279E
:104080004042C0B2009A13715071002D00D054E725
:10409000019B8C22002B09D1109B2E3A002B05D1BD
:1040A000119A531E9A41534231221A40330000980C
:1040B000770182715A1E93415A428C231340099A08
:1040C000C3714B001A4313000A9A91000B9A0B43D9
:1040D000D100089A0B4311011F220B4301781340B2
:1040E00091430B430370079B1E01019B37439E01C5
:1040F0007023374346781F409E433743477013B0C1
:10410000F0BCBB46B246A946A046F0BC08BC04B011
:104110001847002188460020002D00D07CE740464B
:1041200007E04146002900D16FE7B046002CF2D0ED
:104130003000002B00D1BFE10E9D029B9D4200D1BB
:10414000D2E6002D00D184E00F99002A02D0002E83
:1041500000D085E04B23B5225746DC460D9E002853
:1041600000D1CAE60020802370E7C04674AC00107E
:104170009C2C00209D2C0020A12C0020A22C002093
:10418000992C00209B2C00209F2C0020A02C00208C
:104190000028C4D0002B00D141E7019B0D9E002BCD
:1041A00032D00E9D029B9D4200D190E0002D00D0A8
:1041B000A1E0BB4B1B78002B00D1BDE0002800D153
:1041C000C9E043465746DC460F99002B00D07FE1FB
:1041D0005A22C62335E7201E01D0002D30D1B14C24
:1041E0000594B14C06944AE6059A002A00D135E6BA
:1041F000002E00D132E6AD4A9046012241460A70B7
:10420000AB49320089462DE6002ECAD10F990E9D8A
:10421000029B002900D181E09D4200D1A4E05746D5
:10422000DC46002D00D1ADE0002F00D1C6E0C9244E
:10423000514655463722A423A14652E0D023FBE63F
:1042400099480400069001202070964C280005949F
:1042500015E6984B0F991B78002B22D0002920D00F
:104260003023D02278E7049B5B4500D13CE1002D50
:1042700011D0431E98413223404218405B466730BC
:10428000002B15D03D2301229446FBE6D02080234D
:1042900049E6AA2347E65B46002B0ED03023802058
:1042A000F1E7002A01D0002EDAD165239B2253E7E3
:1042B000C323009A137150713FE6D023009A137103
:1042C000503B5371E4E680232371637135E60300AC
:1042D000B8245A1E93415746DC464822A1460F99FE
:1042E000B7334446002C00D1ABE64A46A9E60500A8
:1042F00075E71600B2E5B3245746DC464D229E23EF
:10430000A1460F99EDE75B46002B1DD0039B9A4514
:1043100000D1E4E05D468020802304E69D4223D066
:104320005746DC46002D26D0002F3ED0B8245546F7
:1043300048229D23A146D4E7A8245746DC465822AC
:10434000A1460F99C433CCE7039B9A45BBD080208C
:104350008023029DE7E543465746DC460F99002B34
:1043600018D03C23A82270E6B8245746DC464822E1
:10437000B823A146B5E7002F0FD09D246322B823B0
:10438000A146AEE7002F23D0A42451465C22C623C9
:10439000A146A6E75822C42355E65B46002B2BD046
:1043A000A7245922BF23A1469BE75B46002B18D0C8
:1043B000BF245D464122A723A14692E75B46002B1E
:1043C00030D0C42459465D463C22AA23A14688E742
:1043D0005B46002B1BD0AA2459465622C423A14673
:1043E0007FE7039B002B2ED1049B1E1E44D1BB24D0
:1043F0004522A146993374E7039B002B1ED1049BF1
:104400001E1E33D199246722A146BB3369E7039B63
:10441000002B25D1049B1E1E3BD19F246122A14667
:10442000C9335EE7039B002B13D1049B191E2AD1CD
:10443000C92429003722A1469F3352E7A9245722D5
:10444000B823A1464DE7B8241D004822A923A14660
:1044500047E7BB241D0019004522AB23A14640E7D6
:10446000AF2419005122C023A1463AE7B324002605
:104470004D22BD23A14634E7B12400264F22AA23B2
:10448000A146049D2DE7B3244D22AB23A146049DF4
:1044900027E7AF2400265122B923A146049920E73B
:1044A0009E2C00209F2C0020A02C0020A22C00205D
:1044B000A12C00209A2C0020002800D03CE680226D
:1044C0005746DC46002013000D9E0E9D0F99BDE55A
:1044D000A623009A404693702033D37015E58023BD
:1044E000009A1371537128E580231800CAE5C0466D
:1044F00084B0F0B5DE46454657464E460C0AA04607
:10450000E0B50C0C93B01D911E921F93A4460700BA
:10451000140A1DA8019403939B461D0A1C0C037BDF
:10452000160C0E93437BF6B20093CBB20F93434627
:10453000DBB20B936346090E0D91D1B2120EDBB2C2
:1045400006925A460C936B46D2B20591079219799E
:10455000EAB2039B1192E2B204921A0E0A92027C12
:10456000847B0392427CC57B0992827C01910296F6
:104570000892C27C964993463800082203F072FFE5
:10458000944B1A78002A00D1FDE00E99002900D042
:10459000B0E0914A1092914A9146914A9046914ECC
:1045A0003278002A00D100E1221E02D0002D00D076
:1045B000EDE18D488D4C84468D4882464846002961
:1045C00000D100E1007881460098002800D1C8E0C1
:1045D0004046007880465046002A00D1CAE0007864
:1045E0008246002D00D1CBE024787A4B00981970D8
:1045F000109B3270187063461D704B465E427341CB
:1046000046465B4250460B40002E00D18EE000280B
:1046100000D184E000229246002C00D090E00022DD
:10462000002D00D189E0002B03D15346002B00D18F
:10463000E2E0019B119D002B00D1B5E1049B9D425E
:1046400000D1CBE1002D00D10BE22E009F23C82426
:1046500068480078002805D0002903D00099002977
:1046600000D002E25146002900D0E0E06442E4B20A
:10467000002E00D1DEE0002A00D0DBE05B42DBB29E
:10468000BC70FB70002D00D0D9E0089B9B4500D189
:10469000B2E1039B099A934200D1BEE1D522002BDF
:1046A00000D1BDE14C235946002900D0DAE03B712E
:1046B0007A71002D00D1DCE0049B002B00D1D8E002
:1046C0000122594604207B781140890083430398D6
:1046D0000B43104093430343082008998343114040
:1046E000C9000B43022109988B4302405200134337
:1046F0007B70BEE0009A002A00D14AE7364A117862
:104700001092002900D0AAE1344A9146012249467C
:104710000A70334A0099904641E700988246002C7F
:1047200000D01BE1002A00D07DE778E70028F4D014
:10473000009A9246002C00D171E7002B03D153461A
:10474000002B00D1CFE1119D049B002200269D4249
:1047500000D16CE18023A324002D00D178E7C6248A
:1047600076E7030040460370002080465046002A4A
:1047700000D034E7027000208246002D00D033E7DD
:104780002570002431E7144A0E9910921278002AFD
:1047900002D0002900D0EDE0104A124E9146104A96
:1047A00090463278002A00D0FEE60F4A94461278EE
:1047B000002A00D0D6E00E48220082460B4C484624
:1047C000002900D0FEE6017000208146FCE6C046CC
:1047D0007CAC0010922C0020932C0020962C002002
:1047E000972C0020902C0020912C0020952C00204C
:1047F000942C0020982C0020119D049B9D4200D1F8
:10480000E3E06B426B410A245B422340BC33BC4C67
:1048100026788024002E00D12DE78024002906D0A0
:1048200000987F2441424841404204400134002E18
:1048300000D020E7BC70FB70002D00D125E7049B61
:10484000002B00D121E7039B099A934200D0F1E0AD
:10485000089B9B4500D133E75B46002B00D1F8E075
:10486000802380225242D2B23B717A71002D00D057
:1048700022E77B781B0701D5012307930123082139
:10488000079A1340DA007B788B4313437B70012235
:104890005B0705D4069B0022002B01D0994B1A78A8
:1048A000012304211A407B7892008B4313437B70D1
:1048B000019B5A1E93418C225B421340BB71029BA9
:1048C000591E8B415B421A40069BFA71002B05D0A2
:1048D0008C4B1B78002B01D13133BB710B9B0F220A
:1048E00059000F9B0B4319000C9B9B0019430D9B18
:1048F000DB0019433B78114093431943059B397002
:10490000002B6FD0804B1B78002B6BD101223133F1
:10491000BB71CBB213433B700123019A7E781A40DE
:104920009101402296430E4320213800029A8E4383
:104930001A40520116430A9A103913403A781B0163
:104940008A4313437E703B7013B0F0BCBB46B24643
:10495000A946A046F0BC08BC04B01847002A00D005
:1049600061E6EAE6221E01D0002D30D16748684C8E
:10497000824623E6009B002B00D10DE7654A904656
:10498000012241460A70644A0099914607E6634A4B
:1049900094461278002A60D15C4A5D4C924601220E
:1049A000504602702A0009E6029B002B00D045E623
:1049B000049B9D4212D05B46002D58D0002B5CD04A
:1049C0005D465E46A423D22442E6E4231FE701228B
:1049D0004F4C4E48227082462A00EFE50126C6233E
:1049E000C62435E601221021059B1A4013017A786E
:1049F0008A431A437A708FE7039B09998B426FD0E1
:104A0000002D0FD0531E9A4153423E221A40039B61
:104A10006132002B14D02C2326E7E422802342E6C7
:104A2000B42340E6002B0FD01C2380221CE78023F8
:104A3000E4240DE6089B9B450BD08022802332E6C0
:104A4000D4237A713B7137E6E4233B71643B7B717D
:104A50000FE780233B717B712EE6150086E70091FE
:104A60009AE60126C823AC24F2E50124FAE5002BDE
:104A70000BD05E46D223A224EAE5039B002B0AD08A
:104A80001D001E00D424B223E2E5039E002E0AD0AE
:104A9000D423A824DCE5089B002B0AD01D001E00AF
:104AA000CD24B723D4E5089E002E09D0CD23B7240A
:104AB000CEE5099B002B0AD12E00C624A233C7E500
:104AC000099B002B08D101269C24BA33C0E51E00A7
:104AD0001D00C824BD23BBE51E00BE24C823B7E5C6
:104AE00080231A00C0E6064B119D1A78002A02D1D5
:104AF000802423009EE60022802316008DE6C04617
:104B0000982C0020DC140020DD140020942C0020C0
:104B1000952C0020972C0020962C0020912C002012
:104B200084B0F0B5DE46574645464E46E0B50D0A20
:104B3000A84691B01C920292170A160C92461A0CC3
:104B40000192CAB20D0C09924246AC461B91D2B2F8
:104B5000090E0A920C9162465146D2B2C9B20B922A
:104B60000D91029AF9B20091F1B20591110E6A46C7
:104B700004001D931BA81D0A0F91D9B21B0E0893A8
:104B8000037B12799846837B0E911E00037CE9B269
:104B90000193437C477B0493837CC57B0393C37C55
:104BA0000292200008220691C0499B4603F05AFC5D
:104BB000BF4B1B78002B58D043463A00002B43D103
:104BC000BC498C46BC498A46BC498946BC4F3978A9
:104BD00000295AD031002800002E02D0002D00D02C
:104BE0008BE1B84DB84EA846B84D07965646002BF7
:104BF00059D03678B2464E46002A5AD03678B14659
:104C000000295BD02D78079E00285CD03678079667
:104C1000A74E39703370664632704646307056463D
:104C200077427E41764233404E46002E00D1B1E0BD
:104C3000002D4DD0079A002A5ED00022002B63D1B0
:104C40008020069B0200C9E0002FB9D0994B9C46FA
:104C50001B78002B00D0BAE1974B9A4601235146AE
:104C60000B7096493B008946B0E7924B9C461B78F7
:104C7000002B00D010E190493A008A46904F8F49AE
:104C80004346894639780029A4D18E498846097857
:104C9000002900D01CE131008B4E280007968B4D77
:104CA0005646002BA5D133700026B2464E46002A48
:104CB000A4D132700026B1460029A3D12970079EE5
:104CC00000250028A2D1307000260796A0E7150025
:104CD000079A002A68D100290FD0002B68D1002D37
:104CE00066D1069B029A934200D124E15A425A416E
:104CF000D2008020AB326DE0002500210028ECD1ED
:104D00002A00002B00D1A3E1069B02998B4200D11F
:104D10003FE10699002900D048E19A206631002A37
:104D200000D03BE108008022A070E270002B59D136
:104D3000039A934500D10DE1019A04998A4200D16A
:104D40001CE1002A00D11CE1B82248215846002865
:104D500059D121716271002B5BD0029B002B58D07E
:104D60000122594604206378114089008343019849
:104D70000B4310409343034308200399834311409E
:104D8000C9000B43022104988B4302405200134395
:104D900063703EE0002D9AD0079915000029B0D12C
:104DA0000021002899D1ABE70029A9D0002B96D08B
:104DB000009B002B00D1ACE0069B029A934200D1ED
:104DC000C4E0002B00D104E14D209E22B326002D2B
:104DD00000D03000002901D15242D2B2A070E2705E
:104DE000002BA5D0029A002AA2D0019A04998A42E7
:104DF00000D0D5E0039A9345B2D05A46002A00D19C
:104E0000DFE0802180225242D2B221716271002BF8
:104E1000A3D1009B8C22002B09D10E9B2E3A002B94
:104E200005D10F9A531E9A41534231221A400598D8
:104E3000A27103005A1E93415A428C231340E3711E
:104E40000A9B099A5B001A4313000B9A47019100D1
:104E50000C9A0B43D100089A0B4311011F220B43FC
:104E60002178134091430B4323700D9B20001E01BA
:104E7000009B37439A017023667817431F409E4377
:104E80003743677011B0F0BCBB46B246A946A04696
:104E9000F0BC08BC04B0184743463A00002B21D1AF
:104EA00005498A460549894690E6C04684AC00100B
:104EB0008A2C00208B2C00208E2C00208F2C002090
:104EC000882C0020892C00208D2C00208C2C002088
:104ED00031002800002E01D0002D2FD1634E644DEB
:104EE000079683E6002FDBD0624B994601234946A3
:104EF0000B7061493B008A4668E66049884609783C
:104F0000002962D15A4D594E01312970079601008E
:104F10006CE6059B002B00D04EE7069B029A93425D
:104F200014D05A46002B58D0002A5CD05B46432050
:104F3000B122BD264BE7D02280204BE74B490D0024
:104F40000791012129700100494D4FE64820B82200
:104F5000B8263CE7019A04998A4200D183E0002BED
:104F600012D1029A002A28D048214822B820019D57
:104F7000002D00D049E7207162714AE7D0228021DC
:104F8000E4E6B822B821E1E6002A12D04821B8228E
:104F90003BE73021D020002A00D1C3E680221DE764
:104FA000039A93450DD080228021CFE64B21B52076
:104FB000B5E6B82323716371CFE630218022D0207B
:104FC000D5E7802323716371C7E6080086E71A00DE
:104FD00066E73C20A822C426F9E6002A0BD04F2021
:104FE000BD22B126F3E6019A002A0BD013003E2021
:104FF000AA22C226EBE6019A002A0BD05620C22232
:10500000AA26E4E6039A002A0BD013003920A32233
:10501000C726DCE6039A002A0AD05D20C722A32611
:10502000D5E6049A002A0AD15820A8269A32CEE65C
:10503000049A002A08D15A20A626B132C7E61300E6
:1050400038209B22C826C2E66520CB229B26BEE6DE
:10505000002A00D1F4E5069B02998B4200D058E665
:10506000D0208022BAE680210A00CEE68D2C0020D6
:105070008C2C00208F2C00208E2C0020892C0020CE
:1050800084B0F8B5114E06900791089200210822CD
:105090003000099303F0E0F90D4BD0271C00802568
:1050A0000021A03406A83F06AD041A68825C002ADD
:1050B00005D01A797D61082901D072540131083375
:1050C000A342F2D1F8BC08BC04B01847C0220020AB
:1050D000E0140020052310B5464C71202360FEF734
:1050E00063FC0C232071A3607720FEF75DFC0F2387
:1050F000207323616520FEF757FC0D232075A36103
:105100007220FEF751FC0923207723626120FEF70D
:105110004BFC2423E0541A3BA3627320FEF744FCAB
:105120002C23E054213B23637420FEF73DFC342301
:10513000E054213BA3636320FEF736FC3C23E0549C
:105140002C3B23646620FEF72FFC4423E054323BC3
:10515000A3646720FEF728FC4C23E054002376204C
:105160002365FEF721FC5423E054433BA3656220F2
:10517000FEF71AFC5C23E054563B23667920FEF7C9
:1051800013FC6423E054633BA3666820FEF70CFC29
:105190006C23E054693B23677520FEF705FC7423FC
:1051A000E054723BA3676A20FEF7FEFB7C230722D4
:1051B000E0540433E2506920FEF7F6FB8423042216
:1051C000E0540433E2506B20FEF7EEFB8C23082200
:1051D000E0540433E2506F20FEF7E6FB94230E22E6
:1051E000E0540433E2506C20FEF7DEFB9C23E054D5
:1051F00010BDC046E014002084B0F0B557464E46BE
:105200004546DE46E0B58BB0149015911692179383
:10521000180A190C14AED4B21F0E120EDBB2357C74
:105220009C46B67C0092C0B2C9B2002B00D012E1FD
:105230002300002800D1A5E0002C00D0ACE0002421
:1052400003008846002900D011E100229246002F79
:1052500000D124E15246002A00D111E16246E14624
:10526000002A00D0A6E0013200279146002B00D191
:10527000A6E05346002B00D076E10023002900D1A0
:105280001CE114A9CA7808924A7807920A78069213
:105290008A780592CA7909920A7904924A79039226
:1052A0008A7993464A7A01928A7A0292009A9046C3
:1052B0009146002A00D125E1002292465A1E9341D0
:1052C00008225B4293430F33A04200D1B1E0621E3B
:1052D00094419F2264429443D034BC4500D1ACE059
:1052E0007A1E97419F227F42974314AA527CD0375F
:1052F000AA4200D1A7E06A1E95419F226D429543C4
:1053000014AAD27CD035B24200D1A2E0721E9641DE
:105310009F2276429643D036079A0899520011434D
:105320000A0006999C4889001143059A8370D200AF
:105330001143099A002312011143049AC4705201C7
:105340000A430399077189010A435946C9010A436F
:105350000270029A0199520011430A0000994571A6
:1053600009010A43514649010A4342708671C371DB
:105370000BB0F0BCBB46B246A946A046F0BC08BC88
:1053800004B018478846002900D193E0002C6DD066
:10539000A246002304E003008846002978D08A460C
:1053A00038000024002F7AD062460020E146002A0F
:1053B00000D158E70027002B00D0C3E09C46013302
:1053C00000297BD0002290465246002A00D158E79F
:1053D0004A46002A7CD10132914614A9CA78089223
:1053E0004A7807920A7806928A780592CA790992D1
:1053F0000A7904924A7903928A7993464A7A019209
:105400008A7A0292009A002A7CD05146002900D163
:10541000B0E00021009149460022002978D14146A0
:10542000002900D1AEE0531E9A41931CA04200D047
:105430004DE78024BC4500D052E714AA527C802757
:10544000AA4200D057E714AAD27C8025B24200D0ED
:105450005CE7802660E7002C9DD10400031E00D08D
:10546000EFE664468846002901D1EEE60024BA46FC
:10547000002F05D16246002A6FD1E1460127F5E6EB
:1054800062465746002A10D00022E1469246EDE6D9
:105490000122002400209246002F00D0DAE6674661
:1054A000002F46D100229146E0E60132E2469146C5
:1054B0009446DBE6A24600230024C8E649460029BC
:1054C00034D05246002A00D1DBE6002290469146B5
:1054D00014A9CA7808924A7807920A7806928A78BC
:1054E0000592CA7909920A7904924A7903928A79D3
:1054F00093464A7A01928A7A0292009A9246002A48
:1055000034D1013200218A4600914946002986D0D3
:10551000002B01D14346D7E64346002B39D1531E19
:105520009A415342012293430733CDE6002290462D
:1055300053E75246002A11D0002200279146002B43
:1055400000D13BE700229446002900D040E74A46BC
:10555000002A12D1013290463FE7E2460022574628
:1055600091469246944681E60023EDE7002152469B
:105570000091CAE700920022C7E749460022884608
:105580009146A5E7002A00D198E65A1E93410433BC
:105590009AE6012398E6C046B414002084B0F0B522
:1055A0004E464546DE465746E0B589B01290139107
:1055B0001492159312A91C0A180C1D1C1E0E0B7CAC
:1055C000EDB204934B7CD2B206938B7CE4B207938A
:1055D000CB7CC0B2059300239946002D02D0013345
:1055E000534099460023211E9A4602D0013353406E
:1055F0009A468046002800D19CE0002A00D099E01D
:10560000331E844600D0AAE0002D00D1D9E0150059
:105610000023002A00D098E0002C02D0111E00D0F8
:10562000E0E0002800D1C3E09046002A00D0D0E09E
:1056300000230026002076001E4389000E434146C9
:105640006E4AC900107012A8C4790E43A3460479AB
:10565000009404780194877844780297C7786401AD
:105660000397C37A417A1B011E4389010E43817A55
:10567000009BC9010E4359465B000B43019996708C
:105680000F011F43029B27439B011F43039BDB0129
:105690001F43D77043795B42137183795B42537127
:1056A0004B46002B00D079E0534659424B415449B8
:1056B0005B420B4053498846434499B2090A9371AF
:1056C000D1716346002D62D159424B414C495B4236
:1056D0000B404C498C46634499B21372049B090AEF
:1056E0005172002B4BD1069B59424B4144495B42BE
:1056F0000B4044498C46634499B29372059B090A56
:10570000D172002B33D1079B59424B413C495B423C
:105710000B403C498C46634499B2090A1373517398
:1057200009B0F0BCBB46B246A946A046F0BC08BCD6
:1057300004B01847B446002E00D165E7131E0ED002
:10574000002D4CD02B000025AC460025002C3AD073
:1057500000282BD01E1E00D06CE7013369E7002D16
:1057600033D0002842D19C460021002361E7079BEB
:10577000591E8B412449DB038C466344CCE7069BCE
:10578000591E8B412049DB038C466344B4E7591E04
:105790008B411D49DB038C4663449DE75346591EEC
:1057A0008B411949DB038846434486E70130804634
:1057B000002B00D13DE7131E00D13AE7160000236D
:1057C00038E7002328E701212BE79C460135012318
:1057D00022E700221E1E904600D02BE7BDE70026E0
:1057E000B44619E700210028B4D1DFE79C46002326
:1057F00005009846002100231BE7C046BC1400208A
:105800000180FFFFFF7F00000080FFFFF8B55746D3
:105810004546DE464E462C4BE0B59A461B780500C1
:10582000002B27D0294B9B465B461B78002B1CD0B6
:10583000D02380221B0692045A615968244A14001E
:105840000120A034060013789E4033000B405E42D6
:10585000734156680832AB55A242F3D12800F0BC20
:10586000BB46B246A946A046F8BDD0231B065968E0
:10587000184AE4E7184B1A78144B9B461300FF3B79
:10588000591E8B4159460B70FF2A1AD1114CA02387
:105890009946D0231B0601279846A1442678083450
:1058A000300000F08BFB3B004246B3400121936285
:1058B0003000002200F06AFBA145EFD153461F7073
:1058C000B2E7034CE3E7C046A32C0020A42C002041
:1058D000801500208CAC001000101810334A344B97
:1058E000517819700B215960917819720D21D96086
:1058F000D17819740F215961117919760C21D96168
:105900005079143158541B395962907923315854C5
:105910001F39D962D0792731585426395963107A02
:105920002E3158542639D963507A2E315854303993
:105930005964907A383158540021D964D07A503162
:1059400058543D395965107B453158544739D9650C
:10595000507B4F31585452395966907B5A315854C4
:105960006039D966D07B683158546C395967107CDE
:10597000743158547139D967507C793158540220A8
:1059800004315850907C043158540320043158504D
:10599000D07C04315854012004315850117D982294
:1059A00099540621043299507047C04600101810CF
:1059B00080150020F8B5574645464E46DE4603683A
:1059C000E0B547689246344A9946FB1A0500884676
:1059D0009B1093425CD00126002B02D05E00B342A4
:1059E00050D843464A469C1A002E1BD100239B46A2
:1059F00052465B4612681A51002C23DC434604349D
:105A00005C44FF1A002F30DC4B46E719002B35D1E0
:105A10005B466F60AE602B60F0BCBB46B246A946E9
:105A2000A046F8BD80239B059E422FD2B6003000D1
:105A300002F01EFD834652465B4612685E441A51D0
:105A4000002CDBDD22004946584604F0EDFF4346BA
:105A500004345C44FF1A002F07DC4A46AB68E719A0
:105A6000991A484602F00CFDD2E73A004146200060
:105A700002F0F8FC4B46E719002BC9D04A46AB6848
:105A8000991AEEE74A46054E8C1AD0E7024ECDE74A
:105A9000034802F09DFFC046FFFFFF1FFCFFFF7F92
:105AA0002CAD001070B50E4C0100A544EFF310862C
:105AB00072B680250B4C15226D01684602F0D2FCAF
:105AC0002900200004F080FF2A006946200004F02D
:105AD00043FF86F3108880235B019D4470BDC04660
